{
  "contractName": "MockLendingPoolCore",
  "abi": [
    {
      "anonymous": false,
      "inputs": [
        {
          "indexed": true,
          "internalType": "address",
          "name": "reserve",
          "type": "address"
        },
        {
          "indexed": false,
          "internalType": "uint256",
          "name": "liquidityRate",
          "type": "uint256"
        },
        {
          "indexed": false,
          "internalType": "uint256",
          "name": "stableBorrowRate",
          "type": "uint256"
        },
        {
          "indexed": false,
          "internalType": "uint256",
          "name": "variableBorrowRate",
          "type": "uint256"
        },
        {
          "indexed": false,
          "internalType": "uint256",
          "name": "liquidityIndex",
          "type": "uint256"
        },
        {
          "indexed": false,
          "internalType": "uint256",
          "name": "variableBorrowIndex",
          "type": "uint256"
        }
      ],
      "name": "ReserveUpdated",
      "type": "event"
    },
    {
      "anonymous": false,
      "inputs": [
        {
          "indexed": true,
          "internalType": "uint256",
          "name": "revision",
          "type": "uint256"
        }
      ],
      "name": "ReserveUpdatedFromMock",
      "type": "event"
    },
    {
      "payable": true,
      "stateMutability": "payable",
      "type": "fallback"
    },
    {
      "constant": true,
      "inputs": [],
      "name": "CORE_REVISION",
      "outputs": [
        {
          "internalType": "uint256",
          "name": "",
          "type": "uint256"
        }
      ],
      "payable": false,
      "stateMutability": "view",
      "type": "function"
    },
    {
      "constant": false,
      "inputs": [
        {
          "internalType": "address",
          "name": "_reserve",
          "type": "address"
        }
      ],
      "name": "activateReserve",
      "outputs": [],
      "payable": false,
      "stateMutability": "nonpayable",
      "type": "function"
    },
    {
      "constant": true,
      "inputs": [],
      "name": "addressesProvider",
      "outputs": [
        {
          "internalType": "contract LendingPoolAddressesProvider",
          "name": "",
          "type": "address"
        }
      ],
      "payable": false,
      "stateMutability": "view",
      "type": "function"
    },
    {
      "constant": false,
      "inputs": [
        {
          "internalType": "address",
          "name": "_reserve",
          "type": "address"
        }
      ],
      "name": "deactivateReserve",
      "outputs": [],
      "payable": false,
      "stateMutability": "nonpayable",
      "type": "function"
    },
    {
      "constant": false,
      "inputs": [
        {
          "internalType": "address",
          "name": "_reserve",
          "type": "address"
        }
      ],
      "name": "disableBorrowingOnReserve",
      "outputs": [],
      "payable": false,
      "stateMutability": "nonpayable",
      "type": "function"
    },
    {
      "constant": false,
      "inputs": [
        {
          "internalType": "address",
          "name": "_reserve",
          "type": "address"
        }
      ],
      "name": "disableReserveAsCollateral",
      "outputs": [],
      "payable": false,
      "stateMutability": "nonpayable",
      "type": "function"
    },
    {
      "constant": false,
      "inputs": [
        {
          "internalType": "address",
          "name": "_reserve",
          "type": "address"
        }
      ],
      "name": "disableReserveStableBorrowRate",
      "outputs": [],
      "payable": false,
      "stateMutability": "nonpayable",
      "type": "function"
    },
    {
      "constant": false,
      "inputs": [
        {
          "internalType": "address",
          "name": "_reserve",
          "type": "address"
        },
        {
          "internalType": "bool",
          "name": "_stableBorrowRateEnabled",
          "type": "bool"
        }
      ],
      "name": "enableBorrowingOnReserve",
      "outputs": [],
      "payable": false,
      "stateMutability": "nonpayable",
      "type": "function"
    },
    {
      "constant": false,
      "inputs": [
        {
          "internalType": "address",
          "name": "_reserve",
          "type": "address"
        },
        {
          "internalType": "uint256",
          "name": "_baseLTVasCollateral",
          "type": "uint256"
        },
        {
          "internalType": "uint256",
          "name": "_liquidationThreshold",
          "type": "uint256"
        },
        {
          "internalType": "uint256",
          "name": "_liquidationBonus",
          "type": "uint256"
        }
      ],
      "name": "enableReserveAsCollateral",
      "outputs": [],
      "payable": false,
      "stateMutability": "nonpayable",
      "type": "function"
    },
    {
      "constant": false,
      "inputs": [
        {
          "internalType": "address",
          "name": "_reserve",
          "type": "address"
        }
      ],
      "name": "enableReserveStableBorrowRate",
      "outputs": [],
      "payable": false,
      "stateMutability": "nonpayable",
      "type": "function"
    },
    {
      "constant": false,
      "inputs": [
        {
          "internalType": "address",
          "name": "_reserve",
          "type": "address"
        }
      ],
      "name": "freezeReserve",
      "outputs": [],
      "payable": false,
      "stateMutability": "nonpayable",
      "type": "function"
    },
    {
      "constant": true,
      "inputs": [
        {
          "internalType": "address",
          "name": "_reserve",
          "type": "address"
        }
      ],
      "name": "getReserveATokenAddress",
      "outputs": [
        {
          "internalType": "address",
          "name": "",
          "type": "address"
        }
      ],
      "payable": false,
      "stateMutability": "view",
      "type": "function"
    },
    {
      "constant": true,
      "inputs": [
        {
          "internalType": "address",
          "name": "_reserve",
          "type": "address"
        }
      ],
      "name": "getReserveAvailableLiquidity",
      "outputs": [
        {
          "internalType": "uint256",
          "name": "",
          "type": "uint256"
        }
      ],
      "payable": false,
      "stateMutability": "view",
      "type": "function"
    },
    {
      "constant": true,
      "inputs": [
        {
          "internalType": "address",
          "name": "_reserve",
          "type": "address"
        }
      ],
      "name": "getReserveConfiguration",
      "outputs": [
        {
          "internalType": "uint256",
          "name": "",
          "type": "uint256"
        },
        {
          "internalType": "uint256",
          "name": "",
          "type": "uint256"
        },
        {
          "internalType": "uint256",
          "name": "",
          "type": "uint256"
        },
        {
          "internalType": "bool",
          "name": "",
          "type": "bool"
        }
      ],
      "payable": false,
      "stateMutability": "view",
      "type": "function"
    },
    {
      "constant": true,
      "inputs": [
        {
          "internalType": "address",
          "name": "_reserve",
          "type": "address"
        }
      ],
      "name": "getReserveCurrentAverageStableBorrowRate",
      "outputs": [
        {
          "internalType": "uint256",
          "name": "",
          "type": "uint256"
        }
      ],
      "payable": false,
      "stateMutability": "view",
      "type": "function"
    },
    {
      "constant": true,
      "inputs": [
        {
          "internalType": "address",
          "name": "_reserve",
          "type": "address"
        }
      ],
      "name": "getReserveCurrentLiquidityRate",
      "outputs": [
        {
          "internalType": "uint256",
          "name": "",
          "type": "uint256"
        }
      ],
      "payable": false,
      "stateMutability": "view",
      "type": "function"
    },
    {
      "constant": true,
      "inputs": [
        {
          "internalType": "address",
          "name": "_reserve",
          "type": "address"
        }
      ],
      "name": "getReserveCurrentStableBorrowRate",
      "outputs": [
        {
          "internalType": "uint256",
          "name": "",
          "type": "uint256"
        }
      ],
      "payable": false,
      "stateMutability": "view",
      "type": "function"
    },
    {
      "constant": true,
      "inputs": [
        {
          "internalType": "address",
          "name": "_reserve",
          "type": "address"
        }
      ],
      "name": "getReserveCurrentVariableBorrowRate",
      "outputs": [
        {
          "internalType": "uint256",
          "name": "",
          "type": "uint256"
        }
      ],
      "payable": false,
      "stateMutability": "view",
      "type": "function"
    },
    {
      "constant": true,
      "inputs": [
        {
          "internalType": "address",
          "name": "_reserve",
          "type": "address"
        }
      ],
      "name": "getReserveDecimals",
      "outputs": [
        {
          "internalType": "uint256",
          "name": "",
          "type": "uint256"
        }
      ],
      "payable": false,
      "stateMutability": "view",
      "type": "function"
    },
    {
      "constant": true,
      "inputs": [
        {
          "internalType": "address",
          "name": "_reserve",
          "type": "address"
        }
      ],
      "name": "getReserveInterestRateStrategyAddress",
      "outputs": [
        {
          "internalType": "address",
          "name": "",
          "type": "address"
        }
      ],
      "payable": false,
      "stateMutability": "view",
      "type": "function"
    },
    {
      "constant": true,
      "inputs": [
        {
          "internalType": "address",
          "name": "_reserve",
          "type": "address"
        }
      ],
      "name": "getReserveIsActive",
      "outputs": [
        {
          "internalType": "bool",
          "name": "",
          "type": "bool"
        }
      ],
      "payable": false,
      "stateMutability": "view",
      "type": "function"
    },
    {
      "constant": true,
      "inputs": [
        {
          "internalType": "address",
          "name": "_reserve",
          "type": "address"
        }
      ],
      "name": "getReserveIsFreezed",
      "outputs": [
        {
          "internalType": "bool",
          "name": "",
          "type": "bool"
        }
      ],
      "payable": false,
      "stateMutability": "view",
      "type": "function"
    },
    {
      "constant": true,
      "inputs": [
        {
          "internalType": "address",
          "name": "_reserve",
          "type": "address"
        }
      ],
      "name": "getReserveIsStableBorrowRateEnabled",
      "outputs": [
        {
          "internalType": "bool",
          "name": "",
          "type": "bool"
        }
      ],
      "payable": false,
      "stateMutability": "view",
      "type": "function"
    },
    {
      "constant": true,
      "inputs": [
        {
          "internalType": "address",
          "name": "_reserve",
          "type": "address"
        }
      ],
      "name": "getReserveLastUpdate",
      "outputs": [
        {
          "internalType": "uint40",
          "name": "timestamp",
          "type": "uint40"
        }
      ],
      "payable": false,
      "stateMutability": "view",
      "type": "function"
    },
    {
      "constant": true,
      "inputs": [
        {
          "internalType": "address",
          "name": "_reserve",
          "type": "address"
        }
      ],
      "name": "getReserveLiquidationBonus",
      "outputs": [
        {
          "internalType": "uint256",
          "name": "",
          "type": "uint256"
        }
      ],
      "payable": false,
      "stateMutability": "view",
      "type": "function"
    },
    {
      "constant": true,
      "inputs": [
        {
          "internalType": "address",
          "name": "_reserve",
          "type": "address"
        }
      ],
      "name": "getReserveLiquidationThreshold",
      "outputs": [
        {
          "internalType": "uint256",
          "name": "",
          "type": "uint256"
        }
      ],
      "payable": false,
      "stateMutability": "view",
      "type": "function"
    },
    {
      "constant": true,
      "inputs": [
        {
          "internalType": "address",
          "name": "_reserve",
          "type": "address"
        }
      ],
      "name": "getReserveLiquidityCumulativeIndex",
      "outputs": [
        {
          "internalType": "uint256",
          "name": "",
          "type": "uint256"
        }
      ],
      "payable": false,
      "stateMutability": "view",
      "type": "function"
    },
    {
      "constant": true,
      "inputs": [
        {
          "internalType": "address",
          "name": "_reserve",
          "type": "address"
        }
      ],
      "name": "getReserveNormalizedIncome",
      "outputs": [
        {
          "internalType": "uint256",
          "name": "",
          "type": "uint256"
        }
      ],
      "payable": false,
      "stateMutability": "view",
      "type": "function"
    },
    {
      "constant": true,
      "inputs": [
        {
          "internalType": "address",
          "name": "_reserve",
          "type": "address"
        }
      ],
      "name": "getReserveTotalBorrows",
      "outputs": [
        {
          "internalType": "uint256",
          "name": "",
          "type": "uint256"
        }
      ],
      "payable": false,
      "stateMutability": "view",
      "type": "function"
    },
    {
      "constant": true,
      "inputs": [
        {
          "internalType": "address",
          "name": "_reserve",
          "type": "address"
        }
      ],
      "name": "getReserveTotalBorrowsStable",
      "outputs": [
        {
          "internalType": "uint256",
          "name": "",
          "type": "uint256"
        }
      ],
      "payable": false,
      "stateMutability": "view",
      "type": "function"
    },
    {
      "constant": true,
      "inputs": [
        {
          "internalType": "address",
          "name": "_reserve",
          "type": "address"
        }
      ],
      "name": "getReserveTotalBorrowsVariable",
      "outputs": [
        {
          "internalType": "uint256",
          "name": "",
          "type": "uint256"
        }
      ],
      "payable": false,
      "stateMutability": "view",
      "type": "function"
    },
    {
      "constant": true,
      "inputs": [
        {
          "internalType": "address",
          "name": "_reserve",
          "type": "address"
        }
      ],
      "name": "getReserveTotalLiquidity",
      "outputs": [
        {
          "internalType": "uint256",
          "name": "",
          "type": "uint256"
        }
      ],
      "payable": false,
      "stateMutability": "view",
      "type": "function"
    },
    {
      "constant": true,
      "inputs": [
        {
          "internalType": "address",
          "name": "_reserve",
          "type": "address"
        }
      ],
      "name": "getReserveUtilizationRate",
      "outputs": [
        {
          "internalType": "uint256",
          "name": "",
          "type": "uint256"
        }
      ],
      "payable": false,
      "stateMutability": "view",
      "type": "function"
    },
    {
      "constant": true,
      "inputs": [
        {
          "internalType": "address",
          "name": "_reserve",
          "type": "address"
        }
      ],
      "name": "getReserveVariableBorrowsCumulativeIndex",
      "outputs": [
        {
          "internalType": "uint256",
          "name": "",
          "type": "uint256"
        }
      ],
      "payable": false,
      "stateMutability": "view",
      "type": "function"
    },
    {
      "constant": true,
      "inputs": [],
      "name": "getReserves",
      "outputs": [
        {
          "internalType": "address[]",
          "name": "",
          "type": "address[]"
        }
      ],
      "payable": false,
      "stateMutability": "view",
      "type": "function"
    },
    {
      "constant": true,
      "inputs": [
        {
          "internalType": "address",
          "name": "_reserve",
          "type": "address"
        },
        {
          "internalType": "address",
          "name": "_user",
          "type": "address"
        }
      ],
      "name": "getUserBasicReserveData",
      "outputs": [
        {
          "internalType": "uint256",
          "name": "",
          "type": "uint256"
        },
        {
          "internalType": "uint256",
          "name": "",
          "type": "uint256"
        },
        {
          "internalType": "uint256",
          "name": "",
          "type": "uint256"
        },
        {
          "internalType": "bool",
          "name": "",
          "type": "bool"
        }
      ],
      "payable": false,
      "stateMutability": "view",
      "type": "function"
    },
    {
      "constant": true,
      "inputs": [
        {
          "internalType": "address",
          "name": "_reserve",
          "type": "address"
        },
        {
          "internalType": "address",
          "name": "_user",
          "type": "address"
        }
      ],
      "name": "getUserBorrowBalances",
      "outputs": [
        {
          "internalType": "uint256",
          "name": "",
          "type": "uint256"
        },
        {
          "internalType": "uint256",
          "name": "",
          "type": "uint256"
        },
        {
          "internalType": "uint256",
          "name": "",
          "type": "uint256"
        }
      ],
      "payable": false,
      "stateMutability": "view",
      "type": "function"
    },
    {
      "constant": true,
      "inputs": [
        {
          "internalType": "address",
          "name": "_reserve",
          "type": "address"
        },
        {
          "internalType": "address",
          "name": "_user",
          "type": "address"
        }
      ],
      "name": "getUserCurrentBorrowRateMode",
      "outputs": [
        {
          "internalType": "enum CoreLibrary.InterestRateMode",
          "name": "",
          "type": "uint8"
        }
      ],
      "payable": false,
      "stateMutability": "view",
      "type": "function"
    },
    {
      "constant": true,
      "inputs": [
        {
          "internalType": "address",
          "name": "_reserve",
          "type": "address"
        },
        {
          "internalType": "address",
          "name": "_user",
          "type": "address"
        }
      ],
      "name": "getUserCurrentStableBorrowRate",
      "outputs": [
        {
          "internalType": "uint256",
          "name": "",
          "type": "uint256"
        }
      ],
      "payable": false,
      "stateMutability": "view",
      "type": "function"
    },
    {
      "constant": true,
      "inputs": [
        {
          "internalType": "address",
          "name": "_reserve",
          "type": "address"
        },
        {
          "internalType": "address",
          "name": "_user",
          "type": "address"
        }
      ],
      "name": "getUserLastUpdate",
      "outputs": [
        {
          "internalType": "uint256",
          "name": "timestamp",
          "type": "uint256"
        }
      ],
      "payable": false,
      "stateMutability": "view",
      "type": "function"
    },
    {
      "constant": true,
      "inputs": [
        {
          "internalType": "address",
          "name": "_reserve",
          "type": "address"
        },
        {
          "internalType": "address",
          "name": "_user",
          "type": "address"
        }
      ],
      "name": "getUserOriginationFee",
      "outputs": [
        {
          "internalType": "uint256",
          "name": "",
          "type": "uint256"
        }
      ],
      "payable": false,
      "stateMutability": "view",
      "type": "function"
    },
    {
      "constant": true,
      "inputs": [
        {
          "internalType": "address",
          "name": "_reserve",
          "type": "address"
        },
        {
          "internalType": "address",
          "name": "_user",
          "type": "address"
        }
      ],
      "name": "getUserUnderlyingAssetBalance",
      "outputs": [
        {
          "internalType": "uint256",
          "name": "",
          "type": "uint256"
        }
      ],
      "payable": false,
      "stateMutability": "view",
      "type": "function"
    },
    {
      "constant": true,
      "inputs": [
        {
          "internalType": "address",
          "name": "_reserve",
          "type": "address"
        },
        {
          "internalType": "address",
          "name": "_user",
          "type": "address"
        }
      ],
      "name": "getUserVariableBorrowCumulativeIndex",
      "outputs": [
        {
          "internalType": "uint256",
          "name": "",
          "type": "uint256"
        }
      ],
      "payable": false,
      "stateMutability": "view",
      "type": "function"
    },
    {
      "constant": false,
      "inputs": [
        {
          "internalType": "address",
          "name": "_reserve",
          "type": "address"
        },
        {
          "internalType": "address",
          "name": "_aTokenAddress",
          "type": "address"
        },
        {
          "internalType": "uint256",
          "name": "_decimals",
          "type": "uint256"
        },
        {
          "internalType": "address",
          "name": "_interestRateStrategyAddress",
          "type": "address"
        }
      ],
      "name": "initReserve",
      "outputs": [],
      "payable": false,
      "stateMutability": "nonpayable",
      "type": "function"
    },
    {
      "constant": true,
      "inputs": [
        {
          "internalType": "address",
          "name": "_reserve",
          "type": "address"
        }
      ],
      "name": "isReserveBorrowingEnabled",
      "outputs": [
        {
          "internalType": "bool",
          "name": "",
          "type": "bool"
        }
      ],
      "payable": false,
      "stateMutability": "view",
      "type": "function"
    },
    {
      "constant": true,
      "inputs": [
        {
          "internalType": "address",
          "name": "_reserve",
          "type": "address"
        }
      ],
      "name": "isReserveUsageAsCollateralEnabled",
      "outputs": [
        {
          "internalType": "bool",
          "name": "",
          "type": "bool"
        }
      ],
      "payable": false,
      "stateMutability": "view",
      "type": "function"
    },
    {
      "constant": true,
      "inputs": [
        {
          "internalType": "address",
          "name": "_reserve",
          "type": "address"
        },
        {
          "internalType": "address",
          "name": "_user",
          "type": "address"
        },
        {
          "internalType": "uint256",
          "name": "_amount",
          "type": "uint256"
        }
      ],
      "name": "isUserAllowedToBorrowAtStable",
      "outputs": [
        {
          "internalType": "bool",
          "name": "",
          "type": "bool"
        }
      ],
      "payable": false,
      "stateMutability": "view",
      "type": "function"
    },
    {
      "constant": true,
      "inputs": [
        {
          "internalType": "address",
          "name": "_reserve",
          "type": "address"
        },
        {
          "internalType": "address",
          "name": "_user",
          "type": "address"
        }
      ],
      "name": "isUserUseReserveAsCollateralEnabled",
      "outputs": [
        {
          "internalType": "bool",
          "name": "",
          "type": "bool"
        }
      ],
      "payable": false,
      "stateMutability": "view",
      "type": "function"
    },
    {
      "constant": true,
      "inputs": [],
      "name": "lendingPoolAddress",
      "outputs": [
        {
          "internalType": "address",
          "name": "",
          "type": "address"
        }
      ],
      "payable": false,
      "stateMutability": "view",
      "type": "function"
    },
    {
      "constant": false,
      "inputs": [
        {
          "internalType": "address",
          "name": "_token",
          "type": "address"
        },
        {
          "internalType": "uint256",
          "name": "_amount",
          "type": "uint256"
        },
        {
          "internalType": "address",
          "name": "_destination",
          "type": "address"
        }
      ],
      "name": "liquidateFee",
      "outputs": [],
      "payable": true,
      "stateMutability": "payable",
      "type": "function"
    },
    {
      "constant": false,
      "inputs": [],
      "name": "refreshConfiguration",
      "outputs": [],
      "payable": false,
      "stateMutability": "nonpayable",
      "type": "function"
    },
    {
      "constant": false,
      "inputs": [
        {
          "internalType": "address",
          "name": "_reserveToRemove",
          "type": "address"
        }
      ],
      "name": "removeLastAddedReserve",
      "outputs": [],
      "payable": false,
      "stateMutability": "nonpayable",
      "type": "function"
    },
    {
      "constant": true,
      "inputs": [
        {
          "internalType": "uint256",
          "name": "",
          "type": "uint256"
        }
      ],
      "name": "reservesList",
      "outputs": [
        {
          "internalType": "address",
          "name": "",
          "type": "address"
        }
      ],
      "payable": false,
      "stateMutability": "view",
      "type": "function"
    },
    {
      "constant": false,
      "inputs": [
        {
          "internalType": "address",
          "name": "_reserve",
          "type": "address"
        },
        {
          "internalType": "uint256",
          "name": "_ltv",
          "type": "uint256"
        }
      ],
      "name": "setReserveBaseLTVasCollateral",
      "outputs": [],
      "payable": false,
      "stateMutability": "nonpayable",
      "type": "function"
    },
    {
      "constant": false,
      "inputs": [
        {
          "internalType": "address",
          "name": "_reserve",
          "type": "address"
        },
        {
          "internalType": "uint256",
          "name": "_decimals",
          "type": "uint256"
        }
      ],
      "name": "setReserveDecimals",
      "outputs": [],
      "payable": false,
      "stateMutability": "nonpayable",
      "type": "function"
    },
    {
      "constant": false,
      "inputs": [
        {
          "internalType": "address",
          "name": "_reserve",
          "type": "address"
        },
        {
          "internalType": "address",
          "name": "_rateStrategyAddress",
          "type": "address"
        }
      ],
      "name": "setReserveInterestRateStrategyAddress",
      "outputs": [],
      "payable": false,
      "stateMutability": "nonpayable",
      "type": "function"
    },
    {
      "constant": false,
      "inputs": [
        {
          "internalType": "address",
          "name": "_reserve",
          "type": "address"
        },
        {
          "internalType": "uint256",
          "name": "_bonus",
          "type": "uint256"
        }
      ],
      "name": "setReserveLiquidationBonus",
      "outputs": [],
      "payable": false,
      "stateMutability": "nonpayable",
      "type": "function"
    },
    {
      "constant": false,
      "inputs": [
        {
          "internalType": "address",
          "name": "_reserve",
          "type": "address"
        },
        {
          "internalType": "uint256",
          "name": "_threshold",
          "type": "uint256"
        }
      ],
      "name": "setReserveLiquidationThreshold",
      "outputs": [],
      "payable": false,
      "stateMutability": "nonpayable",
      "type": "function"
    },
    {
      "constant": false,
      "inputs": [
        {
          "internalType": "address",
          "name": "_reserve",
          "type": "address"
        },
        {
          "internalType": "address",
          "name": "_user",
          "type": "address"
        },
        {
          "internalType": "bool",
          "name": "_useAsCollateral",
          "type": "bool"
        }
      ],
      "name": "setUserUseReserveAsCollateral",
      "outputs": [],
      "payable": false,
      "stateMutability": "nonpayable",
      "type": "function"
    },
    {
      "constant": false,
      "inputs": [
        {
          "internalType": "address",
          "name": "_token",
          "type": "address"
        },
        {
          "internalType": "address",
          "name": "_user",
          "type": "address"
        },
        {
          "internalType": "uint256",
          "name": "_amount",
          "type": "uint256"
        },
        {
          "internalType": "address",
          "name": "_destination",
          "type": "address"
        }
      ],
      "name": "transferToFeeCollectionAddress",
      "outputs": [],
      "payable": true,
      "stateMutability": "payable",
      "type": "function"
    },
    {
      "constant": false,
      "inputs": [
        {
          "internalType": "address",
          "name": "_reserve",
          "type": "address"
        },
        {
          "internalType": "address payable",
          "name": "_user",
          "type": "address"
        },
        {
          "internalType": "uint256",
          "name": "_amount",
          "type": "uint256"
        }
      ],
      "name": "transferToReserve",
      "outputs": [],
      "payable": true,
      "stateMutability": "payable",
      "type": "function"
    },
    {
      "constant": false,
      "inputs": [
        {
          "internalType": "address",
          "name": "_reserve",
          "type": "address"
        },
        {
          "internalType": "address payable",
          "name": "_user",
          "type": "address"
        },
        {
          "internalType": "uint256",
          "name": "_amount",
          "type": "uint256"
        }
      ],
      "name": "transferToUser",
      "outputs": [],
      "payable": false,
      "stateMutability": "nonpayable",
      "type": "function"
    },
    {
      "constant": false,
      "inputs": [
        {
          "internalType": "address",
          "name": "_reserve",
          "type": "address"
        }
      ],
      "name": "unfreezeReserve",
      "outputs": [],
      "payable": false,
      "stateMutability": "nonpayable",
      "type": "function"
    },
    {
      "constant": false,
      "inputs": [
        {
          "internalType": "address",
          "name": "_reserve",
          "type": "address"
        },
        {
          "internalType": "address",
          "name": "_user",
          "type": "address"
        },
        {
          "internalType": "uint256",
          "name": "_amountBorrowed",
          "type": "uint256"
        },
        {
          "internalType": "uint256",
          "name": "_borrowFee",
          "type": "uint256"
        },
        {
          "internalType": "enum CoreLibrary.InterestRateMode",
          "name": "_rateMode",
          "type": "uint8"
        }
      ],
      "name": "updateStateOnBorrow",
      "outputs": [
        {
          "internalType": "uint256",
          "name": "",
          "type": "uint256"
        },
        {
          "internalType": "uint256",
          "name": "",
          "type": "uint256"
        }
      ],
      "payable": false,
      "stateMutability": "nonpayable",
      "type": "function"
    },
    {
      "constant": false,
      "inputs": [
        {
          "internalType": "address",
          "name": "_reserve",
          "type": "address"
        },
        {
          "internalType": "address",
          "name": "_user",
          "type": "address"
        },
        {
          "internalType": "uint256",
          "name": "_amount",
          "type": "uint256"
        },
        {
          "internalType": "bool",
          "name": "_isFirstDeposit",
          "type": "bool"
        }
      ],
      "name": "updateStateOnDeposit",
      "outputs": [],
      "payable": false,
      "stateMutability": "nonpayable",
      "type": "function"
    },
    {
      "constant": false,
      "inputs": [
        {
          "internalType": "address",
          "name": "_reserve",
          "type": "address"
        },
        {
          "internalType": "uint256",
          "name": "_availableLiquidityBefore",
          "type": "uint256"
        },
        {
          "internalType": "uint256",
          "name": "_income",
          "type": "uint256"
        },
        {
          "internalType": "uint256",
          "name": "_protocolFee",
          "type": "uint256"
        }
      ],
      "name": "updateStateOnFlashLoan",
      "outputs": [],
      "payable": false,
      "stateMutability": "nonpayable",
      "type": "function"
    },
    {
      "constant": false,
      "inputs": [
        {
          "internalType": "address",
          "name": "_principalReserve",
          "type": "address"
        },
        {
          "internalType": "address",
          "name": "_collateralReserve",
          "type": "address"
        },
        {
          "internalType": "address",
          "name": "_user",
          "type": "address"
        },
        {
          "internalType": "uint256",
          "name": "_amountToLiquidate",
          "type": "uint256"
        },
        {
          "internalType": "uint256",
          "name": "_collateralToLiquidate",
          "type": "uint256"
        },
        {
          "internalType": "uint256",
          "name": "_feeLiquidated",
          "type": "uint256"
        },
        {
          "internalType": "uint256",
          "name": "_liquidatedCollateralForFee",
          "type": "uint256"
        },
        {
          "internalType": "uint256",
          "name": "_balanceIncrease",
          "type": "uint256"
        },
        {
          "internalType": "bool",
          "name": "_liquidatorReceivesAToken",
          "type": "bool"
        }
      ],
      "name": "updateStateOnLiquidation",
      "outputs": [],
      "payable": false,
      "stateMutability": "nonpayable",
      "type": "function"
    },
    {
      "constant": false,
      "inputs": [
        {
          "internalType": "address",
          "name": "_reserve",
          "type": "address"
        },
        {
          "internalType": "address",
          "name": "_user",
          "type": "address"
        },
        {
          "internalType": "uint256",
          "name": "_balanceIncrease",
          "type": "uint256"
        }
      ],
      "name": "updateStateOnRebalance",
      "outputs": [
        {
          "internalType": "uint256",
          "name": "",
          "type": "uint256"
        }
      ],
      "payable": false,
      "stateMutability": "nonpayable",
      "type": "function"
    },
    {
      "constant": false,
      "inputs": [
        {
          "internalType": "address",
          "name": "_reserve",
          "type": "address"
        },
        {
          "internalType": "address",
          "name": "_user",
          "type": "address"
        },
        {
          "internalType": "uint256",
          "name": "_amountRedeemed",
          "type": "uint256"
        },
        {
          "internalType": "bool",
          "name": "_userRedeemedEverything",
          "type": "bool"
        }
      ],
      "name": "updateStateOnRedeem",
      "outputs": [],
      "payable": false,
      "stateMutability": "nonpayable",
      "type": "function"
    },
    {
      "constant": false,
      "inputs": [
        {
          "internalType": "address",
          "name": "_reserve",
          "type": "address"
        },
        {
          "internalType": "address",
          "name": "_user",
          "type": "address"
        },
        {
          "internalType": "uint256",
          "name": "_paybackAmountMinusFees",
          "type": "uint256"
        },
        {
          "internalType": "uint256",
          "name": "_originationFeeRepaid",
          "type": "uint256"
        },
        {
          "internalType": "uint256",
          "name": "_balanceIncrease",
          "type": "uint256"
        },
        {
          "internalType": "bool",
          "name": "_repaidWholeLoan",
          "type": "bool"
        }
      ],
      "name": "updateStateOnRepay",
      "outputs": [],
      "payable": false,
      "stateMutability": "nonpayable",
      "type": "function"
    },
    {
      "constant": false,
      "inputs": [
        {
          "internalType": "address",
          "name": "_reserve",
          "type": "address"
        },
        {
          "internalType": "address",
          "name": "_user",
          "type": "address"
        },
        {
          "internalType": "uint256",
          "name": "_principalBorrowBalance",
          "type": "uint256"
        },
        {
          "internalType": "uint256",
          "name": "_compoundedBorrowBalance",
          "type": "uint256"
        },
        {
          "internalType": "uint256",
          "name": "_balanceIncrease",
          "type": "uint256"
        },
        {
          "internalType": "enum CoreLibrary.InterestRateMode",
          "name": "_currentRateMode",
          "type": "uint8"
        }
      ],
      "name": "updateStateOnSwapRate",
      "outputs": [
        {
          "internalType": "enum CoreLibrary.InterestRateMode",
          "name": "",
          "type": "uint8"
        },
        {
          "internalType": "uint256",
          "name": "",
          "type": "uint256"
        }
      ],
      "payable": false,
      "stateMutability": "nonpayable",
      "type": "function"
    },
    {
      "constant": false,
      "inputs": [
        {
          "internalType": "contract LendingPoolAddressesProvider",
          "name": "_addressesProvider",
          "type": "address"
        }
      ],
      "name": "initialize",
      "outputs": [],
      "payable": false,
      "stateMutability": "nonpayable",
      "type": "function"
    }
  ],
  "bytecode": "0x60806040526000805534801561001457600080fd5b5061589b80620000256000396000f3fe60806040526004361061041b5760003560e01c8063a2353fdc1161021e578063d15e005311610123578063e8ae2f5b116100ab578063f61483111161007a578063f6148311146113bf578063f6ea8d7614611443578063fa51854c1461147e578063fa93b2a5146114c3578063feab31ac146115065761041b565b8063e8ae2f5b146112eb578063eede87c11461131e578063ef1f937314611359578063f054ab461461138c5761041b565b8063dae4c4e7116100f2578063dae4c4e7146111d4578063e10076ad14611207578063e2174d8614611242578063e240301914611285578063e6d18190146112b85761041b565b8063d15e0053146110fc578063d3ae26b31461112f578063d466016f14611144578063da12d96f1461117d5761041b565b8063bd7fd79a116101a6578063c540148e11610175578063c540148e14611012578063c72c4d1014611045578063c76a6c9c1461105a578063c7d142371461108d578063d06e2ec1146110c95761041b565b8063bd7fd79a14610f46578063bfacad8414610f79578063c33cfd9014610fac578063c4d66de814610fdf5761041b565b8063afcdbea3116101ed578063afcdbea314610e17578063b701d09314610e62578063b75d6f3414610e95578063b8c0f74514610ec8578063bcd6ffa414610efb5761041b565b8063a2353fdc14610d29578063a5bc826c14610d5c578063a8dc0f4514610da1578063af825b0714610dd45761041b565b80635cf2e656116103245780637aca76eb116102ac578063906c0a411161027b578063906c0a4114610bfc57806398bd473714610c2f5780639e3c4f3b14610c625780639e67484814610c9d5780639fb8afcd14610cd05761041b565b80637aca76eb14610b2d5780637f90fec514610b6057806388079d8814610b935780638f385c2214610bc65761041b565b806366d103f3116102f357806366d103f3146109e057806368beb4d614610a1b5780636ae1441614610a865780636fffab0c14610ab957806370fb84f414610af45761041b565b80635cf2e656146109045780635fc526ff14610937578063646810831461099257806366bbd928146109a75761041b565b80633443a14b116103a757806345330a401161037657806345330a40146107de57806346bc0f28146108275780634a08accb1461085a5780634f1446091461088d5780634fe7a6e5146108da5761041b565b80633443a14b146106b757806334b3beee146106f057806337ac6fe41461073f5780633e72a454146107ab5761041b565b806318a4dbca116103ee57806318a4dbca1461057957806318f9bbae146105b45780631ca19f19146105e75780631d2118f91461064657806328fcf4d3146106815761041b565b806305075d6e146104615780630902f1ac146104a857806309ac29531461050d5780630c7de4e914610552575b61042433611541565b61045f5760405162461bcd60e51b81526004018080602001828103825260368152602001806155ef6036913960400191505060405180910390fd5b005b34801561046d57600080fd5b506104946004803603602081101561048457600080fd5b50356001600160a01b031661157f565b604080519115158252519081900360200190f35b3480156104b457600080fd5b506104bd6115a7565b60408051602080825283518183015283519192839290830191858101910280838360005b838110156104f95781810151838201526020016104e1565b505050509050019250505060405180910390f35b34801561051957600080fd5b5061045f6004803603608081101561053057600080fd5b506001600160a01b038135169060208101359060408101359060600135611609565b34801561055e57600080fd5b506105676116d7565b60408051918252519081900360200190f35b34801561058557600080fd5b506105676004803603604081101561059c57600080fd5b506001600160a01b03813581169160200135166116dc565b3480156105c057600080fd5b50610494600480360360208110156105d757600080fd5b50356001600160a01b031661176f565b3480156105f357600080fd5b506106226004803603604081101561060a57600080fd5b506001600160a01b0381358116916020013516611797565b6040518082600281111561063257fe5b60ff16815260200191505060405180910390f35b34801561065257600080fd5b5061045f6004803603604081101561066957600080fd5b506001600160a01b03813581169160200135166117ec565b61045f6004803603606081101561069757600080fd5b506001600160a01b038135811691602081013590911690604001356118d2565b3480156106c357600080fd5b5061045f600480360360408110156106da57600080fd5b506001600160a01b038135169060200135611a9d565b3480156106fc57600080fd5b506107236004803603602081101561071357600080fd5b50356001600160a01b0316611b71565b604080516001600160a01b039092168252519081900360200190f35b34801561074b57600080fd5b50610792600480360360a081101561076257600080fd5b5080356001600160a01b03908116916020810135909116906040810135906060810135906080013560ff16611b92565b6040805192835260208301919091528051918290030190f35b3480156107b757600080fd5b5061045f600480360360208110156107ce57600080fd5b50356001600160a01b0316611c32565b3480156107ea57600080fd5b5061045f6004803603608081101561080157600080fd5b506001600160a01b03813581169160208101358216916040820135916060013516611d0e565b34801561083357600080fd5b506105676004803603602081101561084a57600080fd5b50356001600160a01b0316611e68565b34801561086657600080fd5b506104946004803603602081101561087d57600080fd5b50356001600160a01b0316611e86565b34801561089957600080fd5b506108c0600480360360208110156108b057600080fd5b50356001600160a01b0316611eae565b6040805164ffffffffff9092168252519081900360200190f35b3480156108e657600080fd5b50610723600480360360208110156108fd57600080fd5b5035611eda565b34801561091057600080fd5b506104946004803603602081101561092757600080fd5b50356001600160a01b0316611f01565b34801561094357600080fd5b5061096a6004803603602081101561095a57600080fd5b50356001600160a01b0316611f29565b6040805194855260208501939093528383019190915215156060830152519081900360800190f35b34801561099e57600080fd5b5061045f611f67565b3480156109b357600080fd5b5061045f600480360360408110156109ca57600080fd5b506001600160a01b038135169060200135612026565b3480156109ec57600080fd5b5061056760048036036040811015610a0357600080fd5b506001600160a01b03813581169160200135166120fa565b348015610a2757600080fd5b5061045f6004803603610120811015610a3f57600080fd5b506001600160a01b03813581169160208101358216916040820135169060608101359060808101359060a08101359060c08101359060e08101359061010001351515612130565b348015610a9257600080fd5b5061072360048036036020811015610aa957600080fd5b50356001600160a01b03166121d2565b348015610ac557600080fd5b5061056760048036036040811015610adc57600080fd5b506001600160a01b03813581169160200135166121f3565b348015610b0057600080fd5b5061045f60048036036040811015610b1757600080fd5b506001600160a01b038135169060200135612222565b348015610b3957600080fd5b5061045f60048036036020811015610b5057600080fd5b50356001600160a01b03166122f6565b348015610b6c57600080fd5b5061056760048036036020811015610b8357600080fd5b50356001600160a01b03166123d8565b348015610b9f57600080fd5b5061056760048036036020811015610bb657600080fd5b50356001600160a01b03166123f6565b61045f60048036036060811015610bdc57600080fd5b506001600160a01b0381358116916020810135916040909101351661251e565b348015610c0857600080fd5b5061056760048036036020811015610c1f57600080fd5b50356001600160a01b0316612634565b348015610c3b57600080fd5b5061056760048036036020811015610c5257600080fd5b50356001600160a01b03166126e4565b348015610c6e57600080fd5b5061049460048036036040811015610c8557600080fd5b506001600160a01b0381358116916020013516612702565b348015610ca957600080fd5b5061049460048036036020811015610cc057600080fd5b50356001600160a01b031661273b565b348015610cdc57600080fd5b50610d0b60048036036040811015610cf357600080fd5b506001600160a01b0381358116916020013516612763565b60408051938452602084019290925282820152519081900360600190f35b348015610d3557600080fd5b5061056760048036036020811015610d4c57600080fd5b50356001600160a01b03166127ee565b348015610d6857600080fd5b5061045f60048036036080811015610d7f57600080fd5b506001600160a01b03813516906020810135906040810135906060013561280c565b348015610dad57600080fd5b5061045f60048036036020811015610dc457600080fd5b50356001600160a01b031661295a565b348015610de057600080fd5b5061056760048036036060811015610df757600080fd5b506001600160a01b03813581169160208101359091169060400135612a89565b348015610e2357600080fd5b5061045f60048036036080811015610e3a57600080fd5b506001600160a01b038135811691602081013590911690604081013590606001351515612b29565b348015610e6e57600080fd5b5061056760048036036020811015610e8557600080fd5b50356001600160a01b0316612bb1565b348015610ea157600080fd5b5061045f60048036036020811015610eb857600080fd5b50356001600160a01b0316612bcf565b348015610ed457600080fd5b5061045f60048036036020811015610eeb57600080fd5b50356001600160a01b0316612d02565b348015610f0757600080fd5b5061045f60048036036080811015610f1e57600080fd5b506001600160a01b038135811691602081013590911690604081013590606001351515612dde565b348015610f5257600080fd5b5061056760048036036020811015610f6957600080fd5b50356001600160a01b0316612e66565b348015610f8557600080fd5b5061056760048036036020811015610f9c57600080fd5b50356001600160a01b0316612e81565b348015610fb857600080fd5b5061056760048036036020811015610fcf57600080fd5b50356001600160a01b0316612eeb565b348015610feb57600080fd5b5061045f6004803603602081101561100257600080fd5b50356001600160a01b0316612f24565b34801561101e57600080fd5b506105676004803603602081101561103557600080fd5b50356001600160a01b0316612fe3565b34801561105157600080fd5b50610723613001565b34801561106657600080fd5b506105676004803603602081101561107d57600080fd5b50356001600160a01b0316613010565b61045f600480360360808110156110a357600080fd5b506001600160a01b0381358116916020810135821691604082013591606001351661302e565b3480156110d557600080fd5b5061045f600480360360208110156110ec57600080fd5b50356001600160a01b03166131e0565b34801561110857600080fd5b506105676004803603602081101561111f57600080fd5b50356001600160a01b03166133f5565b34801561113b57600080fd5b50610723613416565b34801561115057600080fd5b5061045f6004803603604081101561116757600080fd5b506001600160a01b038135169060200135613425565b34801561118957600080fd5b5061045f600480360360c08110156111a057600080fd5b506001600160a01b03813581169160208101359091169060408101359060608101359060808101359060a0013515156134f9565b3480156111e057600080fd5b5061045f600480360360208110156111f757600080fd5b50356001600160a01b0316613568565b34801561121357600080fd5b5061096a6004803603604081101561122a57600080fd5b506001600160a01b038135811691602001351661364a565b34801561124e57600080fd5b506104946004803603606081101561126557600080fd5b506001600160a01b038135811691602081013590911690604001356136f7565b34801561129157600080fd5b50610567600480360360208110156112a857600080fd5b50356001600160a01b031661378d565b3480156112c457600080fd5b50610567600480360360208110156112db57600080fd5b50356001600160a01b0316613831565b3480156112f757600080fd5b5061045f6004803603602081101561130e57600080fd5b50356001600160a01b0316613852565b34801561132a57600080fd5b5061045f6004803603604081101561134157600080fd5b506001600160a01b038135169060200135151561396d565b34801561136557600080fd5b5061045f6004803603602081101561137c57600080fd5b50356001600160a01b0316613aa4565b34801561139857600080fd5b50610567600480360360208110156113af57600080fd5b50356001600160a01b0316613b80565b3480156113cb57600080fd5b50611418600480360360c08110156113e257600080fd5b5080356001600160a01b039081169160208101359091169060408101359060608101359060808101359060a0013560ff16613b9e565b6040518083600281111561142857fe5b60ff1681526020018281526020019250505060405180910390f35b34801561144f57600080fd5b506105676004803603604081101561146657600080fd5b506001600160a01b0381358116916020013516613c30565b34801561148a57600080fd5b5061045f600480360360608110156114a157600080fd5b506001600160a01b038135811691602081013590911690604001351515613c5f565b3480156114cf57600080fd5b5061045f600480360360608110156114e657600080fd5b506001600160a01b03813581169160208101359091169060400135613cf1565b34801561151257600080fd5b506105676004803603604081101561152957600080fd5b506001600160a01b0381358116916020013516613e18565b6000813f7fc5d2460186f7233c927e7db2dcc703c0e500b653ca82273b7bfad8045d85a47081811480159061157557508115155b925050505b919050565b6001600160a01b03166000908152603660205260409020600d0154600160e01b900460ff1690565b606060388054806020026020016040519081016040528092919081815260200182805480156115ff57602002820191906000526020600020905b81546001600160a01b031681526001909101906020018083116115e1575b5050505050905090565b6034546001600160a01b031633146116525760405162461bcd60e51b815260040180806020018281038252602a8152602001806157f0602a913960400191505060405180910390fd5b61165c8482613e47565b6001600160a01b038416600090815260366020526040902061167d90613f2a565b600061169861168b86613831565b859063ffffffff613fc216565b6001600160a01b03861660009081526036602052604090209091506116c490828563ffffffff61401c16565b6116d08584600061407a565b5050505050565b600481565b6001600160a01b038083166000908152603660209081526040808320600c015481516370a0823160e01b8152868616600482015291519394169283926370a082319260248082019391829003018186803b15801561173957600080fd5b505afa15801561174d573d6000803e3d6000fd5b505050506040513d602081101561176357600080fd5b50519150505b92915050565b6001600160a01b03166000908152603660205260409020600d0154600160d01b900460ff1690565b6001600160a01b038082166000908152603760209081526040808320938616835292905290812080546117ce576000915050611769565b60008160030154116117e15760026117e4565b60015b949350505050565b603554604080516385c858b160e01b8152905133926001600160a01b0316916385c858b1916004808301926020929190829003018186803b15801561183057600080fd5b505afa158015611844573d6000803e3d6000fd5b505050506040513d602081101561185a57600080fd5b50516001600160a01b0316146118a15760405162461bcd60e51b81526004018080602001828103825260378152602001806157466037913960400191505060405180910390fd5b6001600160a01b039182166000908152603660205260409020600d0180546001600160a01b03191691909216179055565b6034546001600160a01b0316331461191b5760405162461bcd60e51b815260040180806020018281038252602a8152602001806157f0602a913960400191505060405180910390fd5b6119236140bb565b6001600160a01b0316836001600160a01b0316146119985734156119785760405162461bcd60e51b81526004018080602001828103825260328152602001806156856032913960400191505060405180910390fd5b6119936001600160a01b03841683308463ffffffff6140d316565b611a98565b803410156119d75760405162461bcd60e51b81526004018080602001828103825260358152602001806155ba6035913960400191505060405180910390fd5b80341115611a985760006119f1348363ffffffff61412d16565b6040519091506000906001600160a01b0385169061c35090849084818181858888f193505050503d8060008114611a44576040519150601f19603f3d011682016040523d82523d6000602084013e611a49565b606091505b50509050806116d0576040805162461bcd60e51b8152602060048201526016602482015275151c985b9cd9995c881bd9881155120819985a5b195960521b604482015290519081900360640190fd5b505050565b603554604080516385c858b160e01b8152905133926001600160a01b0316916385c858b1916004808301926020929190829003018186803b158015611ae157600080fd5b505afa158015611af5573d6000803e3d6000fd5b505050506040513d6020811015611b0b57600080fd5b50516001600160a01b031614611b525760405162461bcd60e51b81526004018080602001828103825260378152602001806157466037913960400191505060405180910390fd5b6001600160a01b03909116600090815260366020526040902060090155565b6001600160a01b039081166000908152603660205260409020600c01541690565b60345460009081906001600160a01b03163314611be05760405162461bcd60e51b815260040180806020018281038252602a8152602001806157f0602a913960400191505060405180910390fd5b600080611bed8989612763565b9250509150611c00898984848b8a61416f565b611c0e898989848a8a61419e565b611c1a8960008961407a565b611c2489896142c3565b999098509650505050505050565b603554604080516385c858b160e01b8152905133926001600160a01b0316916385c858b1916004808301926020929190829003018186803b158015611c7657600080fd5b505afa158015611c8a573d6000803e3d6000fd5b505050506040513d6020811015611ca057600080fd5b50516001600160a01b031614611ce75760405162461bcd60e51b81526004018080602001828103825260378152602001806157466037913960400191505060405180910390fd5b6001600160a01b03166000908152603660205260409020600d01805460ff60e01b19169055565b603554604080516385c858b160e01b8152905133926001600160a01b0316916385c858b1916004808301926020929190829003018186803b158015611d5257600080fd5b505afa158015611d66573d6000803e3d6000fd5b505050506040513d6020811015611d7c57600080fd5b50516001600160a01b031614611dc35760405162461bcd60e51b81526004018080602001828103825260378152602001806157466037913960400191505060405180910390fd5b6001600160a01b0380851660009081526036602052604080822081516304dda73560e21b8152600481019190915286841660248201526044810186905292841660648401525173__CoreLibrary___________________________926313769cd4926084808301939192829003018186803b158015611e4157600080fd5b505af4158015611e55573d6000803e3d6000fd5b50505050611e6284614355565b50505050565b6001600160a01b031660009081526036602052604090206006015490565b6001600160a01b03166000908152603660205260409020600d0154600160e81b900460ff1690565b6001600160a01b03166000908152603660205260409020600d0154600160a01b900464ffffffffff1690565b60388181548110611ee757fe5b6000918252602090912001546001600160a01b0316905081565b6001600160a01b03166000908152603660205260409020600d0154600160c81b900460ff1690565b6001600160a01b03166000908152603660205260409020600b81015460088201546009830154600d909301549193909291600160d01b900460ff1690565b603554604080516385c858b160e01b8152905133926001600160a01b0316916385c858b1916004808301926020929190829003018186803b158015611fab57600080fd5b505afa158015611fbf573d6000803e3d6000fd5b505050506040513d6020811015611fd557600080fd5b50516001600160a01b03161461201c5760405162461bcd60e51b81526004018080602001828103825260378152602001806157466037913960400191505060405180910390fd5b6120246143f9565b565b603554604080516385c858b160e01b8152905133926001600160a01b0316916385c858b1916004808301926020929190829003018186803b15801561206a57600080fd5b505afa15801561207e573d6000803e3d6000fd5b505050506040513d602081101561209457600080fd5b50516001600160a01b0316146120db5760405162461bcd60e51b81526004018080602001828103825260378152602001806157466037913960400191505060405180910390fd5b6001600160a01b039091166000908152603660205260409020600b0155565b6001600160a01b0390811660009081526037602090815260408083209490931682529290925290206004015464ffffffffff1690565b6034546001600160a01b031633146121795760405162461bcd60e51b815260040180806020018281038252602a8152602001806157f0602a913960400191505060405180910390fd5b61218589888885614494565b61218e8861454d565b61219b8988888786614571565b6121a78987600061407a565b806121c7576121c78860006121c2888763ffffffff613fc216565b61407a565b505050505050505050565b6001600160a01b039081166000908152603660205260409020600d01541690565b6001600160a01b0380821660009081526037602090815260408083209386168352929052206003015492915050565b603554604080516385c858b160e01b8152905133926001600160a01b0316916385c858b1916004808301926020929190829003018186803b15801561226657600080fd5b505afa15801561227a573d6000803e3d6000fd5b505050506040513d602081101561229057600080fd5b50516001600160a01b0316146122d75760405162461bcd60e51b81526004018080602001828103825260378152602001806157466037913960400191505060405180910390fd5b6001600160a01b039091166000908152603660205260409020600a0155565b603554604080516385c858b160e01b8152905133926001600160a01b0316916385c858b1916004808301926020929190829003018186803b15801561233a57600080fd5b505afa15801561234e573d6000803e3d6000fd5b505050506040513d602081101561236457600080fd5b50516001600160a01b0316146123ab5760405162461bcd60e51b81526004018080602001828103825260378152602001806157466037913960400191505060405180910390fd5b6001600160a01b03166000908152603660205260409020600d01805460ff60e81b1916600160e81b179055565b6001600160a01b031660009081526036602052604090206002015490565b6001600160a01b0380821660009081526036602090815260408083206035548251631b0c55dd60e11b815292519495919486949190921692633618abba9260048083019392829003018186803b15801561244f57600080fd5b505afa158015612463573d6000803e3d6000fd5b505050506040513d602081101561247957600080fd5b5051600583015490915061251357806001600160a01b031663bb85c0bb856040518263ffffffff1660e01b815260040180826001600160a01b03166001600160a01b0316815260200191505060206040518083038186803b1580156124dd57600080fd5b505afa1580156124f1573d6000803e3d6000fd5b505050506040513d602081101561250757600080fd5b5051925061157a915050565b506005015492915050565b6034546001600160a01b031633146125675760405162461bcd60e51b815260040180806020018281038252602a8152602001806157f0602a913960400191505060405180910390fd5b8034156125a55760405162461bcd60e51b81526004018080602001828103825260368152602001806155346036913960400191505060405180910390fd5b6125ad6140bb565b6001600160a01b0316846001600160a01b0316146125e4576125df6001600160a01b038516828563ffffffff61462f16565b611e62565b6040516000906001600160a01b0383169061c35090869084818181858888f193505050503d8060008114611a44576040519150601f19603f3d011682016040523d82523d6000602084013e611a49565b6001600160a01b038116600090815260366020526040812060048101546126da5780600d0160009054906101000a90046001600160a01b03166001600160a01b03166334762ca56040518163ffffffff1660e01b815260040160206040518083038186803b1580156126a557600080fd5b505afa1580156126b9573d6000803e3d6000fd5b505050506040513d60208110156126cf57600080fd5b5051915061157a9050565b6004015492915050565b6001600160a01b031660009081526036602052604090206003015490565b6001600160a01b03908116600090815260376020908152604080832094909316825292909252902060040154600160281b900460ff1690565b6001600160a01b03166000908152603660205260409020600d0154600160d81b900460ff1690565b6001600160a01b03808216600090815260376020908152604080832093861683529290529081208054829182916127a45750600092508291508190506127e7565b80546001600160a01b03871660009081526036602052604081206127c9908490614681565b905081816127dd818363ffffffff61412d16565b9550955095505050505b9250925092565b6001600160a01b03166000908152603660205260409020600b015490565b603554604080516385c858b160e01b8152905133926001600160a01b0316916385c858b1916004808301926020929190829003018186803b15801561285057600080fd5b505afa158015612864573d6000803e3d6000fd5b505050506040513d602081101561287a57600080fd5b50516001600160a01b0316146128c15760405162461bcd60e51b81526004018080602001828103825260378152602001806157466037913960400191505060405180910390fd5b6001600160a01b038416600090815260366020526040808220815163126ee27360e11b81526004810191909152602481018690526044810185905260648101849052905173__CoreLibrary___________________________926324ddc4e69260848082019391829003018186803b15801561293c57600080fd5b505af4158015612950573d6000803e3d6000fd5b5050505050505050565b603554604080516385c858b160e01b8152905133926001600160a01b0316916385c858b1916004808301926020929190829003018186803b15801561299e57600080fd5b505afa1580156129b2573d6000803e3d6000fd5b505050506040513d60208110156129c857600080fd5b50516001600160a01b031614612a0f5760405162461bcd60e51b81526004018080602001828103825260378152602001806157466037913960400191505060405180910390fd5b6001600160a01b03811660009081526036602052604080822081516372efab5360e11b81526004810191909152905173__CoreLibrary___________________________9263e5df56a69260248082019391829003018186803b158015612a7557600080fd5b505af41580156116d0573d6000803e3d6000fd5b6034546000906001600160a01b03163314612ad55760405162461bcd60e51b815260040180806020018281038252602a8152602001806157f0602a913960400191505060405180910390fd5b612ae0848484614773565b612aeb8484846147c3565b612af78460008061407a565b506001600160a01b038083166000908152603760209081526040808320938716835292905220600301545b9392505050565b6034546001600160a01b03163314612b725760405162461bcd60e51b815260040180806020018281038252602a8152602001806157f0602a913960400191505060405180910390fd5b6001600160a01b0384166000908152603660205260409020612b9390613f2a565b612b9f8460008461407a565b8015611e6257611e6284846000613c5f565b6001600160a01b031660009081526036602052604090206007015490565b603554604080516385c858b160e01b8152905133926001600160a01b0316916385c858b1916004808301926020929190829003018186803b158015612c1357600080fd5b505afa158015612c27573d6000803e3d6000fd5b505050506040513d6020811015612c3d57600080fd5b50516001600160a01b031614612c845760405162461bcd60e51b81526004018080602001828103825260378152602001806157466037913960400191505060405180910390fd5b6001600160a01b0381166000908152603660205260409020805415801590612cb0575060008160070154115b612ceb5760405162461bcd60e51b815260040180806020018281038252602481526020018061577d6024913960400191505060405180910390fd5b600d01805460ff60e01b1916600160e01b17905550565b603554604080516385c858b160e01b8152905133926001600160a01b0316916385c858b1916004808301926020929190829003018186803b158015612d4657600080fd5b505afa158015612d5a573d6000803e3d6000fd5b505050506040513d6020811015612d7057600080fd5b50516001600160a01b031614612db75760405162461bcd60e51b81526004018080602001828103825260378152602001806157466037913960400191505060405180910390fd5b6001600160a01b03166000908152603660205260409020600d01805460ff60d81b19169055565b6034546001600160a01b03163314612e275760405162461bcd60e51b815260040180806020018281038252602a8152602001806157f0602a913960400191505060405180910390fd5b6001600160a01b0384166000908152603660205260409020612e4890613f2a565b612e548483600061407a565b8015611e6257611e6284846001613c5f565b6001600160a01b031660009081526036602052604090205490565b6001600160a01b038116600090815260366020526040812081612ea38261482c565b905080612eb55760009250505061157a565b6000612ec08561378d565b9050612ee2612ed5828463ffffffff613fc216565b839063ffffffff61484916565b95945050505050565b6001600160a01b0381166000908152603660205260408120612b22612f0f8261482c565b612f188561378d565b9063ffffffff613fc216565b6000612f2e614885565b60015490915060ff1680612f455750612f4561488a565b80612f51575060005481115b612f8c5760405162461bcd60e51b815260040180806020018281038252602e8152602001806157c2602e913960400191505060405180910390fd5b60015460ff16158015612fab576001805460ff19168117905560008290555b603580546001600160a01b0319166001600160a01b038516179055612fce6143f9565b8015611a98576001805460ff19169055505050565b6001600160a01b031660009081526036602052604090206001015490565b6035546001600160a01b031681565b6001600160a01b03166000908152603660205260409020600a015490565b6034546001600160a01b031633146130775760405162461bcd60e51b815260040180806020018281038252602a8152602001806157f0602a913960400191505060405180910390fd5b806130806140bb565b6001600160a01b0316856001600160a01b0316146130f55734156130d55760405162461bcd60e51b815260040180806020018281038252605f8152602001806156b7605f913960600191505060405180910390fd5b6130f06001600160a01b03861685838663ffffffff6140d316565b6116d0565b823410156131345760405162461bcd60e51b81526004018080602001828103825260358152602001806155ba6035913960400191505060405180910390fd5b6040516000906001600160a01b0383169061c35090869084818181858888f193505050503d8060008114613184576040519150601f19603f3d011682016040523d82523d6000602084013e613189565b606091505b50509050806131d8576040805162461bcd60e51b8152602060048201526016602482015275151c985b9cd9995c881bd9881155120819985a5b195960521b604482015290519081900360640190fd5b505050505050565b603554604080516385c858b160e01b8152905133926001600160a01b0316916385c858b1916004808301926020929190829003018186803b15801561322457600080fd5b505afa158015613238573d6000803e3d6000fd5b505050506040513d602081101561324e57600080fd5b50516001600160a01b0316146132955760405162461bcd60e51b81526004018080602001828103825260378152602001806157466037913960400191505060405180910390fd5b603880546000919060001981019081106132ab57fe5b6000918252602090912001546001600160a01b039081169150821681146133035760405162461bcd60e51b815260040180806020018281038252603d815260200180615648603d913960400191505060405180910390fd5b61330c81613831565b156133485760405162461bcd60e51b81526004018080602001828103825260308152602001806157166030913960400191505060405180910390fd5b6001600160a01b0381166000908152603660205260408120600d81018054600c830180546001600160a01b0319169055600b8301849055838355600783018490556008830184905560098301849055600a909201929092557fffffff00ff0000ffffffffff000000000000000000000000000000000000000016905560388054806133cf57fe5b600082815260209020810160001990810180546001600160a01b03191690550190555050565b6001600160a01b0381166000908152603660205260408120612b2281614890565b6034546001600160a01b031681565b603554604080516385c858b160e01b8152905133926001600160a01b0316916385c858b1916004808301926020929190829003018186803b15801561346957600080fd5b505afa15801561347d573d6000803e3d6000fd5b505050506040513d602081101561349357600080fd5b50516001600160a01b0316146134da5760405162461bcd60e51b81526004018080602001828103825260378152602001806157466037913960400191505060405180910390fd5b6001600160a01b03909116600090815260366020526040902060080155565b6034546001600160a01b031633146135425760405162461bcd60e51b815260040180806020018281038252602a8152602001806157f0602a913960400191505060405180910390fd5b61354e868686856148be565b61355c868686868686614922565b6131d88685600061407a565b603554604080516385c858b160e01b8152905133926001600160a01b0316916385c858b1916004808301926020929190829003018186803b1580156135ac57600080fd5b505afa1580156135c0573d6000803e3d6000fd5b505050506040513d60208110156135d657600080fd5b50516001600160a01b03161461361d5760405162461bcd60e51b81526004018080602001828103825260378152602001806157466037913960400191505060405180910390fd5b6001600160a01b03166000908152603660205260409020600d01805460ff60d81b1916600160d81b179055565b6001600160a01b03808316600081815260366020908152604080832094861683526037825280832093835292905290812090918291829182918261368e89896116dc565b82549091506136bb576004909101549095506000945084935060ff600160281b9091041691506136ee9050565b806136cc838563ffffffff61468116565b6002840154600490940154919850965091945050600160281b900460ff169150505b92959194509250565b6001600160a01b038381166000818152603660209081526040808320948716835260378252808320938352929052908120600d830154919291600160d81b900460ff1661374957600092505050612b22565b6004810154600160281b900460ff1615806137705750600d820154600160d01b900460ff16155b80613783575061378086866116dc565b84115b9695505050505050565b6000806137986140bb565b6001600160a01b0316836001600160a01b031614156137b8575047611769565b604080516370a0823160e01b815230600482015290516001600160a01b038516916370a08231916024808301926020929190829003018186803b1580156137fe57600080fd5b505afa158015613812573d6000803e3d6000fd5b505050506040513d602081101561382857600080fd5b50519392505050565b6001600160a01b03811660009081526036602052604081206117699061482c565b603554604080516385c858b160e01b8152905133926001600160a01b0316916385c858b1916004808301926020929190829003018186803b15801561389657600080fd5b505afa1580156138aa573d6000803e3d6000fd5b505050506040513d60208110156138c057600080fd5b50516001600160a01b0316146139075760405162461bcd60e51b81526004018080602001828103825260378152602001806157466037913960400191505060405180910390fd5b6001600160a01b038116600090815260366020526040808220815163041e0b2d60e51b81526004810191909152905173__CoreLibrary___________________________926383c165a09260248082019391829003018186803b158015612a7557600080fd5b603554604080516385c858b160e01b8152905133926001600160a01b0316916385c858b1916004808301926020929190829003018186803b1580156139b157600080fd5b505afa1580156139c5573d6000803e3d6000fd5b505050506040513d60208110156139db57600080fd5b50516001600160a01b031614613a225760405162461bcd60e51b81526004018080602001828103825260378152602001806157466037913960400191505060405180910390fd5b6001600160a01b0382166000908152603660205260408082208151637b1dd5df60e11b815260048101919091528315156024820152905173__CoreLibrary___________________________9263f63babbe9260448082019391829003018186803b158015613a9057600080fd5b505af41580156131d8573d6000803e3d6000fd5b603554604080516385c858b160e01b8152905133926001600160a01b0316916385c858b1916004808301926020929190829003018186803b158015613ae857600080fd5b505afa158015613afc573d6000803e3d6000fd5b505050506040513d6020811015613b1257600080fd5b50516001600160a01b031614613b595760405162461bcd60e51b81526004018080602001828103825260378152602001806157466037913960400191505060405180910390fd5b6001600160a01b03166000908152603660205260409020600d01805460ff60e81b19169055565b6001600160a01b031660009081526036602052604090206009015490565b60345460009081906001600160a01b03163314613bec5760405162461bcd60e51b815260040180806020018281038252602a8152602001806157f0602a913960400191505060405180910390fd5b613bf9888888888761499f565b6000613c0789898787614a9e565b9050613c158960008061407a565b80613c208a8a6142c3565b9250925050965096945050505050565b6001600160a01b0380821660009081526037602090815260408083209386168352929052206001015492915050565b6034546001600160a01b03163314613ca85760405162461bcd60e51b815260040180806020018281038252602a8152602001806157f0602a913960400191505060405180910390fd5b6001600160a01b0391821660009081526037602090815260408083209590941682529390935291206004018054911515600160281b0265ff000000000019909216919091179055565b6034546001600160a01b03163314613d3a5760405162461bcd60e51b815260040180806020018281038252602a8152602001806157f0602a913960400191505060405180910390fd5b613d426140bb565b6001600160a01b0316836001600160a01b031614613d74576119936001600160a01b038416838363ffffffff61462f16565b6040516000906001600160a01b0384169061c35090849084818181858888f193505050503d8060008114613dc4576040519150601f19603f3d011682016040523d82523d6000602084013e613dc9565b606091505b5050905080611e62576040805162461bcd60e51b8152602060048201526016602482015275151c985b9cd9995c881bd9881155120819985a5b195960521b604482015290519081900360640190fd5b6001600160a01b0380821660009081526037602090815260408083209386168352929052206002015492915050565b60355460408051637744894b60e11b815290516000926001600160a01b03169163ee891296916004808301926020929190829003018186803b158015613e8c57600080fd5b505afa158015613ea0573d6000803e3d6000fd5b505050506040513d6020811015613eb657600080fd5b50519050613ec26140bb565b6001600160a01b0316836001600160a01b031614613ef4576119936001600160a01b038416828463ffffffff61462f16565b6040516001600160a01b0382169083156108fc029084906000818181858888f19350505050158015611e62573d6000803e3d6000fd5b6000613f358261482c565b90508015613fbe576001820154600d830154600091613f6191600160a01b900464ffffffffff16614b9c565b8354909150613f7790829063ffffffff614be716565b83556004830154600d840154600091613f9d91600160a01b900464ffffffffff16614c1f565b9050613fb6846007015482614be790919063ffffffff16565b600785015550505b5050565b600082820183811015612b22576040805162461bcd60e51b815260206004820152601b60248201527f536166654d6174683a206164646974696f6e206f766572666c6f770000000000604482015290519081900360640190fd5b600061403f61402a84614c6e565b61403384614c6e565b9063ffffffff61484916565b9050600061405b61404e614c84565b839063ffffffff613fc216565b855490915061407190829063ffffffff614be716565b90945550505050565b614085838383614c94565b61408d614885565b6040517fb362f715591e6551ba78917a287fa286eed1ded21d619b267911b67f595af1c990600090a2505050565b73eeeeeeeeeeeeeeeeeeeeeeeeeeeeeeeeeeeeeeee90565b604080516001600160a01b0385811660248301528416604482015260648082018490528251808303909101815260849091019091526020810180516001600160e01b03166323b872dd60e01b179052611e62908590614e21565b6000612b2283836040518060400160405280601e81526020017f536166654d6174683a207375627472616374696f6e206f766572666c6f770000815250614fd9565b6001600160a01b038616600090815260366020526040902061419090613f2a565b6131d8868686868686615070565b6001600160a01b038087166000818152603660209081526040808320948a168352603782528083209383529290522060018360028111156141db57fe5b14156141f757600582015460038201556000600182015561426e565b600283600281111561420557fe5b141561422157600060038201556007820154600182015561426e565b6040805162461bcd60e51b815260206004820152601860248201527f496e76616c696420626f72726f772072617465206d6f64650000000000000000604482015290519081900360640190fd5b8054614286908690612f18908963ffffffff613fc216565b8155600281015461429d908563ffffffff613fc216565b6002820155600401805464ffffffffff19164264ffffffffff1617905550505050505050565b6000806142d08484611797565b905060008160028111156142e057fe5b14156142f0576000915050611769565b60018160028111156142fe57fe5b14614324576001600160a01b0384166000908152603660205260409020600401546117e4565b50506001600160a01b0390811660009081526037602090815260408083209490931682529290925290206003015490565b6000805b6038548110156143a257826001600160a01b03166038828154811061437a57fe5b6000918252602090912001546001600160a01b0316141561439a57600191505b600101614359565b5080613fbe57603880546001810182556000919091527f38395c5dceade9603479b177b68959049485df8aa97b39f3533039af5f4561990180546001600160a01b0384166001600160a01b03199091161790555050565b603560009054906101000a90046001600160a01b03166001600160a01b0316630261bf8b6040518163ffffffff1660e01b815260040160206040518083038186803b15801561444757600080fd5b505afa15801561445b573d6000803e3d6000fd5b505050506040513d602081101561447157600080fd5b5051603480546001600160a01b0319166001600160a01b03909216919091179055565b6001600160a01b038085166000818152603660209081526040808320948816835260378252808320938352929052206144cc82613f2a565b60006144d88787611797565b905060015b8160028111156144e957fe5b1415614524576003820154614507908490869063ffffffff6151cc16565b600382015461451f908490879063ffffffff61523c16565b614544565b614534838563ffffffff61534716565b614544838663ffffffff61536816565b50505050505050565b6001600160a01b038116600090815260366020526040902061456e90613f2a565b50565b6001600160a01b0380851660009081526037602090815260408083209389168352928152828220603690915291902081546145c49086906145b8908663ffffffff613fc216565b9063ffffffff61412d16565b825560026145d28888611797565b60028111156145dd57fe5b14156145ee57600781015460018301555b831561460f576002820154614609908563ffffffff61412d16565b60028301555b50600401805464ffffffffff19164264ffffffffff161790555050505050565b604080516001600160a01b038416602482015260448082018490528251808303909101815260649091019091526020810180516001600160e01b031663a9059cbb60e01b179052611a98908490614e21565b815460009061469257506000611769565b60006146a18460000154614c6e565b60038501549091506000908190156146d557600386015460048701546146ce919064ffffffffff16614c1f565b9050614717565b6147148660010154614033876007015461470889600401548a600d0160149054906101000a900464ffffffffff16614c1f565b9063ffffffff614be716565b90505b61472f61472a848363ffffffff614be716565b6153c0565b865490925082141561476a57600486015464ffffffffff16421461476a57855461476090600163ffffffff613fc216565b9350505050611769565b50949350505050565b6001600160a01b038084166000818152603660209081526040808320948716835260378252808320938352929052206147ab82613f2a565b60038101546116d0908390859063ffffffff6151cc16565b6001600160a01b038083166000908152603760209081526040808320938716835292815282822060369091529190208154614804908463ffffffff613fc216565b8255600501546003820155600401805464ffffffffff19164264ffffffffff16179055505050565b600061176982600301548360020154613fc290919063ffffffff16565b6000600282046117e48361487961486c876b033b2e3c9fd0803ce80000006153d9565b849063ffffffff613fc216565b9063ffffffff61543216565b600590565b303b1590565b600080612b228360000154614708856001015486600d0160149054906101000a900464ffffffffff16614b9c565b6001600160a01b038085166000908152603660209081526040808320603783528184209488168452939091528120906148f78787611797565b6001600160a01b038816600090815260366020526040902090915061491b90613f2a565b60016144dd565b6001600160a01b038087166000818152603660209081526040808320948a168352603782528083209383529290522080546149699087906145b8908763ffffffff613fc216565b815560078201546001820155821561498a5760006003820181905560018201555b600281015461429d908663ffffffff61412d16565b6001600160a01b038086166000818152603660209081526040808320948916835260378252808320938352929052206149d782613f2a565b60018360028111156149e557fe5b1415614a17576003810154614a0183878363ffffffff61523c16565b614a11838663ffffffff61534716565b50614544565b6002836002811115614a2557fe5b1415614a51576005820154614a40838763ffffffff61536816565b614a1183868363ffffffff6151cc16565b6040805162461bcd60e51b815260206004820152601a60248201527f496e76616c69642072617465206d6f6465207265636569766564000000000000604482015290519081900360640190fd5b6001600160a01b03808416600090815260376020908152604080832093881683529281528282206036909152918120909190826002856002811115614adf57fe5b1415614b005750600581015460038301556000600183810191909155614b64565b6001856002811115614b0e57fe5b1415614b2d575060006003830155600781015460018301556002614b64565b60405162461bcd60e51b815260040180806020018281038252602381526020018061581a6023913960400191505060405180910390fd5b8254614b76908763ffffffff613fc216565b83556004909201805464ffffffffff19164264ffffffffff161790555095945050505050565b600080614bb64264ffffffffff851663ffffffff61412d16565b90506000614bca61402a6301e13380614c6e565b9050612ee2614bd7614c84565b612f18878463ffffffff614be716565b6000612b226b033b2e3c9fd0803ce8000000614879614c0c868663ffffffff6153d916565b6b019d971e4fe8401e7400000090613fc2565b600080614c394264ffffffffff851663ffffffff61412d16565b90506000614c51856301e1338063ffffffff61543216565b9050612ee282614c6261486c614c84565b9063ffffffff61547416565b600061176982633b9aca0063ffffffff6153d916565b6b033b2e3c9fd0803ce800000090565b6001600160a01b038084166000908152603660205260408120600d810154909282918291166357e37af088614cd0886145b88b612f188561378d565b8760020154886003015489600601546040518663ffffffff1660e01b815260040180866001600160a01b03166001600160a01b031681526020018581526020018481526020018381526020018281526020019550505050505060606040518083038186803b158015614d4157600080fd5b505afa158015614d55573d6000803e3d6000fd5b505050506040513d6060811015614d6b57600080fd5b508051602080830151604093840151600189018490556005890182905560048901819055600d8901805464ffffffffff4216600160a01b0264ffffffffff60a01b19909116179055885460078a0154865186815294850184905284870183905260608501919091526080840152935192965094509192506001600160a01b038916917f04e4f521f16fcfd987978b05504262c2a2db223844977aab000e5accedb2d725919081900360a00190a250505050505050565b614e33826001600160a01b0316611541565b614e84576040805162461bcd60e51b815260206004820152601f60248201527f5361666545524332303a2063616c6c20746f206e6f6e2d636f6e747261637400604482015290519081900360640190fd5b60006060836001600160a01b0316836040518082805190602001908083835b60208310614ec25780518252601f199092019160209182019101614ea3565b6001836020036101000a0380198251168184511680821785525050505050509050019150506000604051808303816000865af19150503d8060008114614f24576040519150601f19603f3d011682016040523d82523d6000602084013e614f29565b606091505b509150915081614f80576040805162461bcd60e51b815260206004820181905260248201527f5361666545524332303a206c6f772d6c6576656c2063616c6c206661696c6564604482015290519081900360640190fd5b805115611e6257808060200190516020811015614f9c57600080fd5b5051611e625760405162461bcd60e51b815260040180806020018281038252602a81526020018061583d602a913960400191505060405180910390fd5b600081848411156150685760405162461bcd60e51b81526004018080602001828103825283818151815260200191508051906020019080838360005b8381101561502d578181015183820152602001615015565b50505050905090810190601f16801561505a5780820380516001836020036101000a031916815260200191505b509250505060405180910390fd5b505050900390565b600061507c8787611797565b6001600160a01b038816600090815260366020526040902090915060018260028111156150a557fe5b14156150ee576001600160a01b038088166000908152603760209081526040808320938c1683529290522060038101546150e8908390899063ffffffff61523c16565b50615112565b60028260028111156150fc57fe5b141561511257615112818763ffffffff61536816565b600061512885612f18898963ffffffff613fc216565b9050600184600281111561513857fe5b141561515b576005820154615156908390839063ffffffff6151cc16565b6121c7565b600284600281111561516957fe5b141561517f57615156828263ffffffff61534716565b6040805162461bcd60e51b815260206004820152601c60248201527f496e76616c6964206e657720626f72726f772072617465206d6f646500000000604482015290519081900360640190fd5b60028301546151e1818463ffffffff613fc216565b600285015560006151f58361470886614c6e565b9050600061520a866006015461470885614c6e565b905061522c61521c8760020154614c6e565b614033848463ffffffff613fc216565b8660060181905550505050505050565b8183600201541015615295576040805162461bcd60e51b815260206004820152601a60248201527f496e76616c696420616d6f756e7420746f206465637265617365000000000000604482015290519081900360640190fd5b60028301546152aa818463ffffffff61412d16565b600285018190556152c2575060006006840155611a98565b60006152d18361470886614c6e565b905060006152e6866006015461470885614c6e565b9050818110156153275760405162461bcd60e51b81526004018080602001828103825260238152602001806156256023913960400191505060405180910390fd5b61522c6153378760020154614c6e565b614033838563ffffffff61412d16565b600382015461535c908263ffffffff613fc216565b82600301819055505050565b80826003015410156153ab5760405162461bcd60e51b815260040180806020018281038252605081526020018061556a6050913960600191505060405180910390fd5b600382015461535c908263ffffffff61412d16565b6000631dcd6500612b22633b9aca006148798386613fc2565b6000826153e857506000611769565b828202828482816153f557fe5b0414612b225760405162461bcd60e51b81526004018080602001828103825260218152602001806157a16021913960400191505060405180910390fd5b6000612b2283836040518060400160405280601a81526020017f536166654d6174683a206469766973696f6e206279207a65726f0000000000008152506154ce565b600060028206615490576b033b2e3c9fd0803ce8000000615492565b825b90506002820491505b8115611769576154ab8384614be7565b925060028206156154c3576154c08184614be7565b90505b60028204915061549b565b6000818361551d5760405162461bcd60e51b815260206004820181815283516024840152835190928392604490910191908501908083836000831561502d578181015183820152602001615015565b50600083858161552957fe5b049594505050505056fe466565206c69717569646174696f6e20646f6573206e6f74207265717569726520616e79207472616e73666572206f662076616c756554686520616d6f756e742074686174206973206265696e6720737562747261637465642066726f6d20746865207661726961626c6520746f74616c20626f72726f777320697320696e636f727265637454686520616d6f756e7420616e64207468652076616c75652073656e7420746f206465706f73697420646f206e6f74206d617463684f6e6c7920636f6e7472616374732063616e2073656e6420657468657220746f20746865204c656e64696e6720706f6f6c20636f726554686520616d6f756e747320746f20737562747261637420646f6e2774206d6174636852657365727665206265696e672072656d6f76656420697320646966666572656e74207468616e20746865207265736572766520726571756573746564557365722069732073656e64696e672045544820616c6f6e67207769746820746865204552433230207472616e736665722e557365722069732073656e64696e672045544820616c6f6e67207769746820746865204552433230207472616e736665722e20436865636b207468652076616c756520617474726962757465206f6620746865207472616e73616374696f6e43616e6e6f742072656d6f7665206120726573657276652077697468206c6971756964697479206465706f73697465645468652063616c6c6572206d7573742062652061206c656e64696e6720706f6f6c20636f6e666967757261746f7220636f6e74726163745265736572766520686173206e6f74206265656e20696e697469616c697a656420796574536166654d6174683a206d756c7469706c69636174696f6e206f766572666c6f77436f6e747261637420696e7374616e63652068617320616c7265616479206265656e20696e697469616c697a65645468652063616c6c6572206d7573742062652061206c656e64696e6720706f6f6c20636f6e7472616374496e76616c696420696e7465726573742072617465206d6f64652072656365697665645361666545524332303a204552433230206f7065726174696f6e20646964206e6f742073756363656564a265627a7a72315820a5a05dbe7332a0ea9acfd87c1276fc050c9c51264e6eb06ea7c963c49c7b254264736f6c634300050e0032",
  "source": "pragma solidity ^0.5.0;\n\nimport \"openzeppelin-solidity/contracts/math/SafeMath.sol\";\nimport \"openzeppelin-solidity/contracts/token/ERC20/SafeERC20.sol\";\nimport \"openzeppelin-solidity/contracts/token/ERC20/ERC20.sol\";\nimport \"openzeppelin-solidity/contracts/utils/Address.sol\";\nimport \"../../libraries/openzeppelin-upgradeability/VersionedInitializable.sol\";\n\nimport \"../../libraries/CoreLibrary.sol\";\nimport \"../../configuration/LendingPoolAddressesProvider.sol\";\nimport \"../../interfaces/ILendingRateOracle.sol\";\nimport \"../../interfaces/IReserveInterestRateStrategy.sol\";\nimport \"../../libraries/WadRayMath.sol\";\n\nimport \"../../lendingpool/LendingPoolCore.sol\";\n\n/*************************************************************************************\n* @title MockLendingPoolCore contract\n* @author Aave\n* @notice This is a mock contract to test upgradeability of the AddressProvider\n *************************************************************************************/\n\ncontract MockLendingPoolCore is LendingPoolCore {\n\n    event ReserveUpdatedFromMock(uint256 indexed revision);\n\n    uint256 constant private CORE_REVISION = 0x5;\n\n    function getRevision() internal pure returns(uint256) {\n        return CORE_REVISION;\n    }\n\n    function initialize(LendingPoolAddressesProvider _addressesProvider) public initializer {\n        addressesProvider = _addressesProvider;\n        refreshConfigInternal();\n    }\n\n    function updateReserveInterestRatesAndTimestampInternal(address _reserve, uint256 _liquidityAdded, uint256 _liquidityTaken)\n        internal\n    {\n        super.updateReserveInterestRatesAndTimestampInternal(_reserve, _liquidityAdded, _liquidityTaken);\n\n        emit ReserveUpdatedFromMock(getRevision());\n\n    }\n}\n",
  "sourcePath": "/Users/liyu/github/aave-protocol/contracts/mocks/upgradeability/MockLendingPoolCore.sol",
  "compiler": {
    "name": "solc",
    "version": "0.5.14+commit.01f1aaa4.Emscripten.clang"
  },
  "schemaVersion": "3.3.0",
  "updatedAt": "2020-10-13T03:49:39.292Z",
  "devdoc": {
    "author": "Aave",
    "methods": {
      "activateReserve(address)": {
        "details": "activates a reserve",
        "params": {
          "_reserve": "the address of the reserve*"
        }
      },
      "deactivateReserve(address)": {
        "details": "deactivates a reserve",
        "params": {
          "_reserve": "the address of the reserve*"
        }
      },
      "disableBorrowingOnReserve(address)": {
        "details": "disables borrowing on a reserve",
        "params": {
          "_reserve": "the address of the reserve*"
        }
      },
      "disableReserveAsCollateral(address)": {
        "details": "disables a reserve to be used as collateral",
        "params": {
          "_reserve": "the address of the reserve*"
        }
      },
      "disableReserveStableBorrowRate(address)": {
        "details": "disable the stable borrow rate mode on a reserve",
        "params": {
          "_reserve": "the address of the reserve*"
        }
      },
      "enableBorrowingOnReserve(address,bool)": {
        "details": "enables borrowing on a reserve. Also sets the stable rate borrowing",
        "params": {
          "_reserve": "the address of the reserve",
          "_stableBorrowRateEnabled": "true if the stable rate needs to be enabled, false otherwise*"
        }
      },
      "enableReserveAsCollateral(address,uint256,uint256,uint256)": {
        "details": "enables a reserve to be used as collateral",
        "params": {
          "_reserve": "the address of the reserve*"
        }
      },
      "enableReserveStableBorrowRate(address)": {
        "details": "enable the stable borrow rate mode on a reserve",
        "params": {
          "_reserve": "the address of the reserve*"
        }
      },
      "freezeReserve(address)": {
        "params": {
          "_reserve": "the address of the reserve*"
        }
      },
      "getReserveATokenAddress(address)": {
        "details": "gets the aToken contract address for the reserve",
        "params": {
          "_reserve": "the reserve address"
        },
        "return": "the address of the aToken contract*"
      },
      "getReserveAvailableLiquidity(address)": {
        "details": "gets the available liquidity in the reserve. The available liquidity is the balance of the core contract",
        "params": {
          "_reserve": "the reserve address"
        },
        "return": "the available liquidity*"
      },
      "getReserveConfiguration(address)": {
        "details": "this function aggregates the configuration parameters of the reserve. It's used in the LendingPoolDataProvider specifically to save gas, and avoid multiple external contract calls to fetch the same data.",
        "params": {
          "_reserve": "the reserve address"
        },
        "return": "the reserve decimalsthe base ltv as collateralthe liquidation thresholdif the reserve is used as collateral or not*"
      },
      "getReserveCurrentAverageStableBorrowRate(address)": {
        "details": "gets the reserve average stable borrow rate. The average stable rate is the weighted average of all the loans taken at stable rate.",
        "params": {
          "_reserve": "the reserve address"
        },
        "return": "the reserve current average borrow rate*"
      },
      "getReserveCurrentLiquidityRate(address)": {
        "details": "gets the reserve liquidity rate",
        "params": {
          "_reserve": "the reserve address"
        },
        "return": "the reserve liquidity rate*"
      },
      "getReserveCurrentStableBorrowRate(address)": {
        "details": "gets the reserve current stable borrow rate. Is the market rate if the reserve is empty",
        "params": {
          "_reserve": "the reserve address"
        },
        "return": "the reserve current stable borrow rate*"
      },
      "getReserveCurrentVariableBorrowRate(address)": {
        "details": "gets the reserve current variable borrow rate. Is the base variable borrow rate if the reserve is empty",
        "params": {
          "_reserve": "the reserve address"
        },
        "return": "the reserve current variable borrow rate*"
      },
      "getReserveDecimals(address)": {
        "details": "returns the decimals of the reserve",
        "params": {
          "_reserve": "the reserve address"
        },
        "return": "the reserve decimals*"
      },
      "getReserveInterestRateStrategyAddress(address)": {
        "details": "gets the interest rate strategy contract address for the reserve",
        "params": {
          "_reserve": "the reserve address"
        },
        "return": "the address of the interest rate strategy contract*"
      },
      "getReserveIsActive(address)": {
        "details": "returns true if the reserve is active",
        "params": {
          "_reserve": "the reserve address"
        },
        "return": "true if the reserve is active, false otherwise*"
      },
      "getReserveIsFreezed(address)": {
        "params": {
          "_reserve": "the reserve for which the information is needed"
        },
        "return": "true if the reserve is freezed, false otherwise*"
      },
      "getReserveIsStableBorrowRateEnabled(address)": {
        "details": "returns true if the stable rate is enabled on reserve",
        "params": {
          "_reserve": "the reserve address"
        },
        "return": "true if the stable rate is enabled on reserve, false otherwise*"
      },
      "getReserveLastUpdate(address)": {
        "params": {
          "_reserve": "the reserve for which the information is needed"
        },
        "return": "the last updated timestamp of the reserve*"
      },
      "getReserveLiquidationBonus(address)": {
        "details": "gets the reserve liquidation bonus",
        "params": {
          "_reserve": "the reserve address"
        },
        "return": "the reserve liquidation bonus*"
      },
      "getReserveLiquidationThreshold(address)": {
        "details": "gets the reserve liquidation threshold",
        "params": {
          "_reserve": "the reserve address"
        },
        "return": "the reserve liquidation threshold*"
      },
      "getReserveLiquidityCumulativeIndex(address)": {
        "details": "gets the reserve liquidity cumulative index",
        "params": {
          "_reserve": "the reserve address"
        },
        "return": "the reserve liquidity cumulative index*"
      },
      "getReserveNormalizedIncome(address)": {
        "details": "gets the normalized income of the reserve. a value of 1e27 means there is no income. A value of 2e27 means there there has been 100% income.",
        "params": {
          "_reserve": "the reserve address"
        },
        "return": "the reserve normalized income*"
      },
      "getReserveTotalBorrows(address)": {
        "details": "gets the reserve total borrows",
        "params": {
          "_reserve": "the reserve address"
        },
        "return": "the total borrows (stable + variable)*"
      },
      "getReserveTotalBorrowsStable(address)": {
        "details": "gets the reserve total borrows stable",
        "params": {
          "_reserve": "the reserve address"
        },
        "return": "the total borrows stable*"
      },
      "getReserveTotalBorrowsVariable(address)": {
        "details": "gets the reserve total borrows variable",
        "params": {
          "_reserve": "the reserve address"
        },
        "return": "the total borrows variable*"
      },
      "getReserveTotalLiquidity(address)": {
        "details": "gets the total liquidity in the reserve. The total liquidity is the balance of the core contract + total borrows",
        "params": {
          "_reserve": "the reserve address"
        },
        "return": "the total liquidity*"
      },
      "getReserveUtilizationRate(address)": {
        "details": "returns the utilization rate U of a specific reserve",
        "params": {
          "_reserve": "the reserve for which the information is needed"
        },
        "return": "the utilization rate in ray*"
      },
      "getReserveVariableBorrowsCumulativeIndex(address)": {
        "details": "gets the reserve variable borrow index",
        "params": {
          "_reserve": "the reserve address"
        },
        "return": "the reserve variable borrow index*"
      },
      "getReserves()": {
        "return": "the array of reserves configured on the core*"
      },
      "getUserBasicReserveData(address,address)": {
        "details": "returns the basic data (balances, fee accrued, reserve enabled/disabled as collateral) needed to calculate the global account data in the LendingPoolDataProvider",
        "params": {
          "_reserve": "the address of the reserve",
          "_user": "the address of the user"
        },
        "return": "the user deposited balance, the principal borrow balance, the fee, and if the reserve is enabled as collateral or not*"
      },
      "getUserBorrowBalances(address,address)": {
        "details": "calculates and returns the borrow balances of the user",
        "params": {
          "_reserve": "the address of the reserve",
          "_user": "the address of the user"
        },
        "return": "the principal borrow balance, the compounded balance and the balance increase since the last borrow/repay/swap/rebalance*"
      },
      "getUserCurrentBorrowRateMode(address,address)": {
        "details": "users with no loans in progress have NONE as borrow rate mode",
        "params": {
          "_reserve": "the address of the reserve for which the information is needed",
          "_user": "the address of the user for which the information is needed"
        },
        "return": "the borrow rate mode for the user,*"
      },
      "getUserCurrentStableBorrowRate(address,address)": {
        "details": "the stable rate returned is 0 if the user is borrowing at variable or not borrowing at all",
        "params": {
          "_reserve": "the address of the reserve for which the information is needed",
          "_user": "the address of the user for which the information is needed"
        },
        "return": "the user stable rate*"
      },
      "getUserLastUpdate(address,address)": {
        "details": "the variable borrow index of the user is 0 if the user is not borrowing or borrowing at stable",
        "params": {
          "_reserve": "the address of the reserve for which the information is needed",
          "_user": "the address of the user for which the information is needed"
        },
        "return": "the variable borrow index for the user*"
      },
      "getUserOriginationFee(address,address)": {
        "params": {
          "_reserve": "the address of the reserve for which the information is needed",
          "_user": "the address of the user for which the information is needed"
        },
        "return": "the origination fee for the user*"
      },
      "getUserUnderlyingAssetBalance(address,address)": {
        "details": "gets the underlying asset balance of a user based on the corresponding aToken balance.",
        "params": {
          "_reserve": "the reserve address",
          "_user": "the user address"
        },
        "return": "the underlying deposit balance of the user*"
      },
      "getUserVariableBorrowCumulativeIndex(address,address)": {
        "details": "the variable borrow index of the user is 0 if the user is not borrowing or borrowing at stable",
        "params": {
          "_reserve": "the address of the reserve for which the information is needed",
          "_user": "the address of the user for which the information is needed"
        },
        "return": "the variable borrow index for the user*"
      },
      "initReserve(address,address,uint256,address)": {
        "details": "initializes a reserve",
        "params": {
          "_aTokenAddress": "the address of the overlying aToken contract",
          "_decimals": "the decimals of the reserve currency",
          "_interestRateStrategyAddress": "the address of the interest rate strategy contract*",
          "_reserve": "the address of the reserve"
        }
      },
      "isReserveBorrowingEnabled(address)": {
        "details": "returns true if the reserve is enabled for borrowing",
        "params": {
          "_reserve": "the reserve address"
        },
        "return": "true if the reserve is enabled for borrowing, false otherwise*"
      },
      "isReserveUsageAsCollateralEnabled(address)": {
        "details": "returns true if the reserve is enabled as collateral",
        "params": {
          "_reserve": "the reserve address"
        },
        "return": "true if the reserve is enabled as collateral, false otherwise*"
      },
      "isUserAllowedToBorrowAtStable(address,address,uint256)": {
        "details": "checks if a user is allowed to borrow at a stable rate",
        "params": {
          "_amount": "the amount the the user wants to borrow",
          "_reserve": "the reserve address",
          "_user": "the user"
        },
        "return": "true if the user is allowed to borrow at a stable rate, false otherwise*"
      },
      "isUserUseReserveAsCollateralEnabled(address,address)": {
        "params": {
          "_reserve": "the address of the reserve for which the information is needed",
          "_user": "the address of the user for which the information is needed"
        },
        "return": "true if the user has chosen to use the reserve as collateral, false otherwise*"
      },
      "liquidateFee(address,uint256,address)": {
        "details": "transfers the fees to the fees collection address in the case of liquidation",
        "params": {
          "_amount": "the amount being transferred",
          "_destination": "the fee receiver address*",
          "_token": "the address of the token being transferred"
        }
      },
      "refreshConfiguration()": {
        "details": "updates the lending pool core configuration*"
      },
      "removeLastAddedReserve(address)": {
        "details": "removes the last added reserve in the reservesList array",
        "params": {
          "_reserveToRemove": "the address of the reserve*"
        }
      },
      "setReserveBaseLTVasCollateral(address,uint256)": {
        "params": {
          "_ltv": "the new loan to value*",
          "_reserve": "the address of the reserve"
        }
      },
      "setReserveDecimals(address,uint256)": {
        "params": {
          "_decimals": "the decimals of the reserve*",
          "_reserve": "the address of the reserve"
        }
      },
      "setReserveInterestRateStrategyAddress(address,address)": {
        "details": "updates the address of the interest rate strategy contract",
        "params": {
          "_rateStrategyAddress": "the address of the interest rate strategy contract*",
          "_reserve": "the address of the reserve"
        }
      },
      "setReserveLiquidationBonus(address,uint256)": {
        "params": {
          "_bonus": "the new liquidation bonus*",
          "_reserve": "the address of the reserve"
        }
      },
      "setReserveLiquidationThreshold(address,uint256)": {
        "params": {
          "_reserve": "the address of the reserve",
          "_threshold": "the new liquidation threshold*"
        }
      },
      "setUserUseReserveAsCollateral(address,address,bool)": {
        "details": "enables or disables a reserve as collateral",
        "params": {
          "_reserve": "the address of the principal reserve where the user deposited",
          "_useAsCollateral": "true if the depositor wants to use the reserve as collateral*",
          "_user": "the address of the depositor"
        }
      },
      "transferToFeeCollectionAddress(address,address,uint256,address)": {
        "details": "transfers the protocol fees to the fees collection address",
        "params": {
          "_amount": "the amount being transferred",
          "_destination": "the fee receiver address*",
          "_token": "the address of the token being transferred",
          "_user": "the address of the user from where the transfer is happening"
        }
      },
      "transferToReserve(address,address,uint256)": {
        "details": "transfers an amount from a user to the destination reserve",
        "params": {
          "_amount": "the amount being transferred*",
          "_reserve": "the address of the reserve where the amount is being transferred",
          "_user": "the address of the user from where the transfer is happening"
        }
      },
      "transferToUser(address,address,uint256)": {
        "details": "transfers to the user a specific amount from the reserve.",
        "params": {
          "_amount": "the amount being transferred*",
          "_reserve": "the address of the reserve where the transfer is happening",
          "_user": "the address of the user receiving the transfer"
        }
      },
      "unfreezeReserve(address)": {
        "params": {
          "_reserve": "the address of the reserve*"
        }
      },
      "updateStateOnBorrow(address,address,uint256,uint256,uint8)": {
        "details": "updates the state of the core as a consequence of a borrow action.",
        "params": {
          "_amountBorrowed": "the new amount borrowed",
          "_borrowFee": "the fee on the amount borrowed",
          "_rateMode": "the borrow rate mode (stable, variable)",
          "_reserve": "the address of the reserve on which the user is borrowing",
          "_user": "the address of the borrower"
        },
        "return": "the new borrow rate for the user*"
      },
      "updateStateOnDeposit(address,address,uint256,bool)": {
        "details": "updates the state of the core as a result of a deposit action",
        "params": {
          "_amount": "the amount being deposited",
          "_isFirstDeposit": "true if the user is depositing for the first time*",
          "_reserve": "the address of the reserve in which the deposit is happening",
          "_user": "the address of the the user depositing"
        }
      },
      "updateStateOnFlashLoan(address,uint256,uint256,uint256)": {
        "details": "updates the state of the core as a result of a flashloan action",
        "params": {
          "_income": "the income of the protocol as a result of the action*",
          "_reserve": "the address of the reserve in which the flashloan is happening"
        }
      },
      "updateStateOnLiquidation(address,address,address,uint256,uint256,uint256,uint256,uint256,bool)": {
        "details": "updates the state of the core as a consequence of a liquidation action.",
        "params": {
          "_amountToLiquidate": "the amount being repaid by the liquidator",
          "_balanceIncrease": "the accrued interest on the borrowed amount",
          "_collateralReserve": "the address of the collateral reserve that is being liquidated",
          "_collateralToLiquidate": "the amount of collateral being liquidated",
          "_feeLiquidated": "the amount of origination fee being liquidated",
          "_liquidatedCollateralForFee": "the amount of collateral equivalent to the origination fee + bonus",
          "_liquidatorReceivesAToken": "true if the liquidator will receive aTokens, false otherwise*",
          "_principalReserve": "the address of the principal reserve that is being repaid",
          "_user": "the address of the borrower"
        }
      },
      "updateStateOnRebalance(address,address,uint256)": {
        "details": "updates the state of the core as a consequence of a stable rate rebalance",
        "params": {
          "_balanceIncrease": "the accrued interest on the borrowed amount",
          "_reserve": "the address of the principal reserve where the user borrowed",
          "_user": "the address of the borrower"
        },
        "return": "the new stable rate for the user*"
      },
      "updateStateOnRedeem(address,address,uint256,bool)": {
        "details": "updates the state of the core as a result of a redeem action",
        "params": {
          "_amountRedeemed": "the amount being redeemed",
          "_reserve": "the address of the reserve in which the redeem is happening",
          "_user": "the address of the the user redeeming",
          "_userRedeemedEverything": "true if the user is redeeming everything*"
        }
      },
      "updateStateOnRepay(address,address,uint256,uint256,uint256,bool)": {
        "details": "updates the state of the core as a consequence of a repay action.",
        "params": {
          "_balanceIncrease": "the accrued interest on the borrowed amount",
          "_originationFeeRepaid": "the fee on the amount that is being repaid",
          "_paybackAmountMinusFees": "the amount being paid back minus fees",
          "_repaidWholeLoan": "true if the user is repaying the whole loan*",
          "_reserve": "the address of the reserve on which the user is repaying",
          "_user": "the address of the borrower"
        }
      },
      "updateStateOnSwapRate(address,address,uint256,uint256,uint256,uint8)": {
        "details": "updates the state of the core as a consequence of a swap rate action.",
        "params": {
          "_balanceIncrease": "the accrued interest on the borrowed amount",
          "_compoundedBorrowBalance": "the amount borrowed plus accrued interest",
          "_currentRateMode": "the current interest rate mode for the user*",
          "_principalBorrowBalance": "the amount borrowed by the user",
          "_reserve": "the address of the reserve on which the user is repaying",
          "_user": "the address of the borrower"
        }
      }
    },
    "title": "MockLendingPoolCore contract"
  },
  "userdoc": {
    "methods": {
      "freezeReserve(address)": {
        "notice": "allows the configurator to freeze the reserve. A freezed reserve does not allow any action apart from repay, redeem, liquidationCall, rebalance."
      },
      "getReserveIsFreezed(address)": {
        "notice": "returns if a reserve is freezed"
      },
      "getReserveLastUpdate(address)": {
        "notice": "returns the timestamp of the last action on the reserve"
      },
      "setReserveBaseLTVasCollateral(address,uint256)": {
        "notice": "allows the configurator to update the loan to value of a reserve"
      },
      "setReserveDecimals(address,uint256)": {
        "notice": "allows the configurator to update the reserve decimals"
      },
      "setReserveLiquidationBonus(address,uint256)": {
        "notice": "allows the configurator to update the liquidation bonus of a reserve"
      },
      "setReserveLiquidationThreshold(address,uint256)": {
        "notice": "allows the configurator to update the liquidation threshold of a reserve"
      },
      "unfreezeReserve(address)": {
        "notice": "allows the configurator to unfreeze the reserve. A unfreezed reserve allows any action to be executed."
      }
    },
    "notice": "***********************************************************************************This is a mock contract to test upgradeability of the AddressProvider************************************************************************************"
  }
}